:1806000008007F0011007F0E41000C00E1000104070010000000000073
:18061800000000000000000000000000000000000000000000000000CA
:18063000000000000000000000000000000000000000000000000000B2
:180648000000000000000000000000000000000000000000000000009A
:1806600000000000000000000000000000000000000000000000000082
:181FF800000000000000000008007F0011007F1541000C00E100010472
:1820100007002000000000000000000000000000000000000000000091
:18202800000000000000000000000000000000000000000000000000A0
:1820400000000000000000000000000000000000000000000000000088
:1820580000000000000000000000000000000000000000000000000070
:1820700000000000000000000000000000000000000000000000000058
:183FF0000000000000000000000000000000000008007F0011007F1C86
:1840080041000C00E10001040700300000000000000000000000000036
:1840200000000000000000000000000000000000000000000000000088
:1840380000000000000000000000000000000000000000000000000070
:1840500000000000000000000000000000000000000000000000000058
:1840680000000000000000000000000000000000000000000000000040
:1860000008007F0011007F2341000C00E10001040700700000000000A4
:1860180000000000000000000000000000000000000000000000000070
:1860300000000000000000000000000000000000000000000000000058
:1860480000000000000000000000000000000000000000000000000040
:1860600000000000000000000000000000000000000000000000000028
:18DFF800000000000000000008007F0011007F2A41000C00E10001049D
:18E0100008007F0008007F0007000000000000000000000000000000E3
:18E02800000000000000000000000000000000000000000000000000E0
:18E04000000000000000000000000000000000000000000000000000C8
:18E05800000000000000000000000000000000000000000000000000B0
:18E0700000000000000000000000000000000000000000000000000098
:18FDF800000000000000000011007F0C08007F0911007F0D08007F099A
:18FE1000090041000C000900000D000A0042004C004F0043004B0031C8
:18FE280000000042004C004F0043004B003200000042004C004F004305
:18FE4000004B003300000042004C004F0043004B003400000042004CFF
:0AFE5800004F0043004B003500008E
:00000001FF
